:020000040800F2
:10000000380700208901000839140008311400085D
:1000100035140008450200084D14000800000000D7
:100020000000000000000000000000004114000873
:1000300049020008000000003D14000845140008B3
:10004000A3010008A3010008A3010008A301000800
:10005000A3010008A3010008A3010008A3010008F0
:10006000A3010008A3010008A3010008A3010008E0
:10007000A3010008A3010008A3010008A3010008D0
:10008000A3010008A3010008A3010008A3010008C0
:10009000A3010008A3010008A3010008A3010008B0
:1000A000A3010008A3010008A3010008A3010008A0
:1000B000A3010008A301000800000000A30100083C
:1000C000A30100080000000000000000A3010008D8
:1000D00000000000A3010008A301000800000000C8
:1000E000A3010008A3010008A301000800F002F822
:1000F00000F03AF80AA090E8000C82448344AAF188
:100100000107DA4501D100F02FF8AFF2090EBAE885
:100110000F0013F0010F18BFFB1A43F0010318473B
:100120007015000090150000103A24BF78C878C1FF
:10013000FAD8520724BF30C830C144BF04680C60ED
:10014000704700000023002400250026103A28BF35
:1001500078C1FBD8520728BF30C148BF0B60704739
:100160001FB51FBD10B510BD00F031F81146FFF7E7
:10017000F7FF01F06DF900F04FF803B4FFF7F2FF5D
:1001800003BC00F057F800000948804709480047C1
:10019000FEE7FEE7FEE7FEE7FEE7FEE7FEE7FEE737
:1001A000FEE7FEE704480549054A064B7047000094
:1001B00049140008ED00000838010020380700202D
:1001C0003803002038030020704770477047754699
:1001D00000F02CF8AE4605006946534620F00700B3
:1001E000854618B020B5FFF7DDFFBDE820404FF091
:1001F00000064FF000074FF000084FF0000BAC4630
:10020000ACE8C009ACE8C009ACE8C009ACE8C0097A
:1002100021F007018D46704710B50446AFF300800A
:100220002046BDE81040FFF7A8BF00000048704717
:100230001000002001491820ABBEFEE72600020096
:1002400070470000FEE7000070470000B0B50446AC
:1002500000F020F9054640F20000C2F200000078EC
:10026000611C18BF044400BF00F014F9401BA042F9
:10027000FAD3B0BD2DE9F04F82B041F20002C4F2D2
:1002800001020E680323904208BF0223002E009350
:1002900000F0EE8040F20C4C4FF6FF7EC4F2010CF1
:1002A00000220124C1F2100E4FF0000B4FF00009A4
:1002B0004AE000BF40F60044C4F20104009DA042A1
:1002C00008BF012502F00C040F27A7402AEA070700
:1002D00005FA04F43C4343F82640D1F804A040F268
:1002E0000045C4F201055FEACA332B6854BF23EA14
:1002F000080343EA08032B606B685FEA8A3454BF43
:1003000023EA080343EA08036B605FEACA24AB6888
:1003100054BF23EA080343EA08035FEA8A24AB6078
:10032000DCF800304FF0010454BF23EA080343EA2D
:100330000803CCF800300E680BF1010B36FA0BF312
:1003400002F1040200F0948004FA0BF816EA080F98
:10035000F1D04E68764511DC122E55D8DFE806F054
:10036000340A4448545454545454545454545454D3
:10037000544C5000D1F80C9046E000BF4FF6FF738C
:10038000C1F221039E420FDC0023C1F211039E4201
:100390001AD00023C1F212039E4215D00023C1F2ED
:1003A00021039E4210D02FE00023C1F222039E427F
:1003B0000AD00023C1F231039E4205D00023C1F2CE
:1003C00032039E4220D100BF8B684BB1012B14BF7A
:1003D000C0F81480C0F810804FF0080914E000BF86
:1003E0004FF0040910E000BFCB6803F108090BE0EF
:1003F0004FF0000908E000BFCB6803F1040903E0F7
:10040000CB6803F10C0900BF13460546BBF1080F8A
:1004100024BF203B04352E680F279F40BE4309FAB6
:1004200003F333432B60CB79DB067FF584AF41F2D6
:100430001804C4F2020423684FEA9B0643F0010348
:100440002360236840F6000403F001030193019B3D
:1004500040F20043C4F20103A3F57E7353F826A0D3
:10046000C4F20104A0427FF425AF00252AE700BFB3
:1004700002B0BDE8F08F0000C26802EA01039143B8
:1004800041EA034101617047002A08BF0904016184
:100490007047000040F23010C2F200000068704760
:1004A00070B5B8B3044690F83D0028B9002084F830
:1004B0003C00204600F0B0F8242084F83D0020687D
:1004C000016821F001010160016841F4004101600F
:1004D000016821F40041016000F052FA48F28041C5
:1004E000C0F21E0140F60013D4F804E088424FF039
:1004F0000001C0F23D0348F2A16C4FF0000238BF8A
:1005000001219842C0F2010C38BF0122E64538BFF4
:100510000A460AB1012070BD4DF68361C4F21B3159
:10052000A0FB01122168950C4B684FF4967623F0DE
:100530003F0343EA9243754344F6D3564B60C1F2FE
:1005400062060B6AA5FB0656B50923F03F03E64594
:1005500038BF950C6A1C1A430A62CA6948F2A06641
:100560004CF6FF73C0F20106B64522EA03020BD82F
:1005700001384FEA4E03B0FBF3F001306FF31F3048
:10058000042898BF04201EE0A368013863B1192332
:100590000EFB03F3B0FBF3F001306FF31F3078B1C3
:1005A00000F5804008E000BF0EEB4E03B0FBF3F017
:1005B00001306FF31F3028B100F5004003E000BFA9
:1005C000012000E001201043C8610868D4E9072336
:1005D00020F0C000104318430860886848F2FF32DA
:1005E00004F10C0690434CCE18431043A569886073
:1005F000C86820F0FF0030432843C860086840F016
:100600000100086000202021206484F83D10206350
:1006100084F83E0070BD000010B586B045F2004180
:100620000268C4F2000100208A42059002D006B0A0
:1006300010BD00BF41F21804C4F20204226842F067
:1006400008022260226802F008020192019AC02288
:1006500002921222CDE9032001F5384002A9FFF7EA
:1006600009FE606840F400106060606800F40010EB
:100670000190019806B010BD40F2000040F2301128
:10068000C2F20000C2F2000100780A68104408605B
:100690007047000080B542F20000C4F20200016819
:1006A00041F010010160032000F07AF80F2000F003
:1006B00005F800F027F8002080BD000070B540F27A
:1006C0000006C2F2000640F208013278C2F20001D0
:1006D0004FF47A730968B3FBF2F20446B1FBF2F10E
:1006E000084600F03BFB0F2C4FF0010508D838B945
:1006F0004FF0FF3021460022002500F025F87460FD
:10070000284670BD82B041F21800C4F202000168B0
:10071000022241F001010160016801F00101019133
:100720000199416841F080514160406800F080507B
:10073000009000980420C4F20100016862F31A617D
:10074000016002B07047000010B54EF60C5CCEF2AE
:10075000000CDCF80030C3F3022E8EF00704042CEA
:1007600028BF0424BEF103034FF0FF3E0EFA04F449
:1007700038BF0023A14399400EFA03F39A43114373
:1007800000F00F02043A624409010C3200F16043A8
:10079000B0F1FF3FC8BF03F56442117010BD000007
:1007A0004EF60C51CEF200010A684FF6FF031A40D4
:1007B00060F30A2242F0806040F0FD7008607047EC
:1007C0002DE9F04381B0002800F0858042F2000856
:1007D000C4F202080446D8F800000D4600F00700F5
:1007E00088420CD2D8F8000020F007002843C8F84F
:1007F0000000D8F8000000F00700A8426BD1206884
:1008000041F204098107C4F2020917D5410705D551
:10081000D9F8001041F4E061C9F80010010705D5CE
:10082000D9F8001041F46051C9F80010D9F800104F
:10083000A26821F0F0011143C9F80010C00741D1AE
:10084000D8F8000000F00700A8420CD9D8F8000042
:1008500020F007002843C8F80000D8F8000000F096
:100860000700A84237D12068410707D5D9F8001002
:10087000E26821F4E0611143C9F80010000708D5CF
:10088000D9F80000216920F4605040EAC100C9F89D
:100890000000D9F8002002F00C00082841F20020E6
:1008A000C0F27A0050D141F27E63C2F38341C0F6B8
:1008B0000003595CD2033BD440F60010C0F23D0067
:1008C000484341E0606802280AD001282AD159F83B
:1008D000041C890308D4012001B0BDE8F08300BFE7
:1008E00059F8041C8901F6D5D9F8001021F003014C
:1008F0000843C9F80000FFF7CDFD064641F28837EE
:10090000D9F80000616800F00C00B0EB810F97D0BF
:10091000FFF7C0FD801BB842F2D9032001B0BDE84B
:10092000F08300BF59F8041C8907D4D5DCE700BF69
:10093000D9F8002041F26463C2F34042C0F60003DC
:100940009A5C4843B0FBF2F0D9F8001041F26662BD
:10095000C1F30311C0F60002515C40F2080220FA14
:1009600001F140F20400C2F200000068C2F200028D
:100970001160FFF7A3FE002001B0BDE8F083000086
:1009800040F2080041F20401C2F20000C4F2020188
:100990000068096841F27662C1F30221C0F60002E4
:1009A000515CC840704700002DE9F04182B000283A
:1009B00068D00446007841F20006C007C4F202067F
:1009C00025D0706800F00C0004281BD0706800F07F
:1009D0000C00082802D17068C00313D46068002896
:1009E00000F06881B0F5A02F00F07C81B0F5803F69
:1009F00000F07C81306820F480303060306820F472
:100A0000802076E13068800301D56068D0B320781B
:100A1000800718D5706810F00C0F07D0706800F0D0
:100A20000C0008286ED17068C0036BD43068800752
:100A300002D52069012825D13068616920F0F800CD
:100A400040EAC1003060207800071FD420784007BA
:100A500032D4E56995B1706800F00C00082840F0C8
:100A60008F80012D0ED07068216A00F480328A4296
:100A700008D1616A00F47010884203D1002002B0EE
:100A8000BDE8F081012002B0BDE8F081A069002836
:100A900062D00020C4F242200121C0F88014FFF788
:100AA000F9FC0546706A800700F18C80FFF7F2FCC4
:100AB000401B0228F6D92AE1F06910F0805808D1CD
:100AC000F06940F08050F061F06900F080500090D3
:100AD000009847F20007C4F200073868C00529D41F
:100AE000386840F480703860FFF7D4FC054600BFDA
:100AF0003868C0051ED4FFF7CDFC401B6428F7D929
:100B000005E100BF2069002840F20000C4F2422045
:100B100000F0828001210160FFF7BCFC054600BFA8
:100B2000306880073FF588AFFFF7B4FC401B022810
:100B3000F6D9ECE0E068002800F08080052800F09D
:100B40009780012800F09880306A20F00100306220
:100B5000306A20F0040092E00020C4F2422000211C
:100B6000C0F88014FFF796FC054600BF706A800746
:100B70007FF56CAFFFF78EFC401B0228F6D9C6E06C
:100B80000027C4F2422700203866FFF783FC022DBD
:100B900005460BD13068800140F1BE80FFF77AFC3A
:100BA000401B02284FF00300F4D968E73068800149
:100BB0007FF564AFFFF76EFC401B02284FF0030087
:100BC000F4D95CE740F20800C2F20000006844F685
:100BD000D351C1F26201A0FB0101480A019000BF9C
:100BE00000BF0198411E002801913FF42FAF00BFC4
:100BF0000198411E002801913FF428AF00BF0198E1
:100C0000411E002801913FF421AF00BF0198411E11
:100C100000280191E4D119E700210160FFF73AFCB7
:100C2000054600BF306880077FF50DAFFFF732FC47
:100C3000401B02284FF00300F4D920E7306A20F06F
:100C400001003062306A20F004003062FFF722FCBD
:100C5000054641F2883700BF306A800720D5FFF78C
:100C600019FC401BB8424FF00300F5D907E700BF5D
:100C7000306A40F004003062306A40F001003062B7
:100C8000FFF708FC054641F2883700BF306A80074D
:100C900006D4FFF7FFFB401BB842F7D937E000BF8F
:100CA000B8F1000F7FF4D5AEF06920F08050F0610C
:100CB000CFE600BF306820F480303060306820F428
:100CC00080203060FFF7E6FB054600BF30688003F8
:100CD0007FF59DAEFFF7DEFB401B64284FF003005D
:100CE000F4D9CCE6306840F480203060306840F4BD
:100CF00080303060FFF7CEFB054600BF30688003D0
:100D00003FF585AEFFF7C6FB401B6428F6D90320EC
:100D100002B0BDE8F08100BF206AB0F5803F05D188
:100D20007168A26821F40031114371607168626AD0
:100D300021F4741110430843706001203866FFF7F6
:100D4000A9FB0446306880013FF598AEFFF7A2FB8F
:100D5000001B02284FF00300F4D990E6411E00204A
:100D6000B0EB116F1CBF012070474EF21002CEF2A3
:100D7000000251604EF62351CEF20001F0230B70B9
:100D8000072190601160704710B590F83C20012A4F
:100D90004FF0020225D080F83D200268D2F804E02E
:100DA000D2F808C00C682EF070032343B2F1804FD4
:100DB00053600BD042F60043C4F201039A4205D0BF
:100DC00040F20043C4F200039A4204D149682CF077
:100DD0008003194391600121002280F83D1080F8C2
:100DE0003C20104610BD0000002804BF01207047C1
:100DF00010B5044690F83D0028B9002084F83C0066
:100E0000204600F051F8022084F83D00206842F6A8
:100E1000004C0268B0F1804FC4F2010C18BF60456D
:100E200004D1A36822F070021A4305E040F20043A7
:100E3000C4F200039842F4D0B0F1804F18BF60456F
:100E400004D1236922F440721A4305E040F20043C2
:100E5000C4F200039842F4D0A16922F08002D4F8D1
:100E600004E0E368114360450160C362C0F828E014
:100E700002D16169CCF8301001214161002084F871
:100E8000461084F83E1084F83F1084F8401084F82F
:100E9000411084F8421084F8431084F8441084F818
:100EA000451084F83D1010BD81B00068B0F1804F4E
:100EB00002D001B0704700BF41F21C00C4F2020032
:100EC000016841F001010160006800F0010000903C
:100ED000009801B07047000080B590F83C20012ACE
:100EE0004FF0020200F0BF8080F83D20D0F800C033
:100EF0004FF67772DCF8083023EA0202CCF80820BB
:100F00000B683F2B1CDD5F2B20DD602B50D0B3F531
:100F1000005F6DD0702B40F0A080D1E901E3C9687B
:100F2000DCF8082043EA0E0322F47F4243EA012161
:100F30001143CCF80810DCF8081041F077018AE082
:100F40001F2B29DC63B3102B2AD086E0402B63D003
:100F5000502B40F08280D1F804E0C968DCF82030E2
:100F6000DCF8202022F00102CCF82020DCF8182048
:100F700022F0F00242EA011123F00A0242EA0E02D4
:100F8000CCF81810CCF82020DCF8081041F05701FC
:100F900021F020015FE000BF202B01D0302B5CD17D
:100FA000DCF8081021F07001194341F0070152E00C
:100FB000D1F804E0C968DCF8203023F01003CCF845
:100FC0002030DCF81830DCF8202023F4704322F0C5
:100FD000A00243EA013142EA0E12CCF81810CCF814
:100FE0002020DCF8081041F0670121F0100132E008
:100FF000D1E901E3C968DCF8082043EA0E0322F4D2
:101000007F4243EA01211143CCF80810DCF80810B4
:1010100041F480411FE000BFD1F804E0C968DCF86A
:101020002030DCF8202022F00102CCF82020DCF86F
:10103000182022F0F00242EA011123F00A0242EAEB
:101040000E02CCF81810CCF82020DCF8081041F083
:10105000470121F03001CCF808100121002280F86E
:101060003D1080F83C20104680BD000080B586B061
:1010700000680021B0F1804F049101D006B080BD1E
:1010800041F21800C4F20200016841F0040101605D
:10109000006802A900F0040001900198032002906A
:1010A00002200390059040F60000C4F20100FFF713
:1010B000E1F806B080BD00002DE9F04390F83C3027
:1010C000012B04BF0220BDE8F0834FEAB202032ADD
:1010D00000F2E580DFE802F0023A76B0036842F6FB
:1010E00000461A6AC4F2010622F001021A621D6A61
:1010F0001A465C6852F818CFB3428E68D1F800E007
:1011000025F0020545EA06050CD1CE68D1E905783F
:1011100024F4407425F00C0526F004063C433543C6
:1011200044EA08042CF0730747EA0E075C609F61ED
:101130004F6809695F631D629F6947F008079F61F7
:101140009F6927F004079F61A6E000BF036842F68D
:1011500000461A6AC4F2010622F010021A621D6AE1
:101160001A46D3F804C052F8184FB3428E68D1F82B
:1011700000E025F0200545EA06150FD1CE68D1E93B
:1011800005986FF0400707EA06162CF4406725F033
:10119000C00547EA8907354347EA880C24F4E6444A
:1011A00044EA0E27C3F804C09F614F6809699F6332
:1011B0001D629F6947F400679F619F6927F48067FC
:1011C0009F6168E0036842F600461A6AC4F20106AD
:1011D00022F480721A621D6A1A46D3F804C052F8CB
:1011E0001CEFB3428E680C6825F4007545EA0625AD
:1011F0000FD1CE68D1E90598360240F2FF47BE43D1
:101200002CF4405725F4406547EA0917354347EA6F
:10121000081C2EF073072743C3F804C0DF614F6832
:101220000969DF631D62DF6947F00807DF61DF6975
:1012300027F00407DF612FE0036842F600471A6ACF
:10124000C4F2010722F480521A621A46D3F820C071
:101250005D6852F81C4FD1F800E08E68BB4204D1A3
:101260004F6925F4804545EA87152CF4005747EA75
:10127000063724F4E64646EA0E265D60DE614E68D7
:1012800009691E641F62DF6947F40067DF61DF6977
:1012900027F48067DF610902136819431160002198
:1012A00080F83C100846BDE8F0830000002804BF29
:1012B0000120704710B5044690F83D0028B9002081
:1012C00084F83C00204600F051F8022084F83D00EC
:1012D000206842F6004C0268B0F1804FC4F2010C65
:1012E00018BF604504D1A36822F070021A4305E0DC
:1012F00040F20043C4F200039842F4D0B0F1804FB2
:1013000018BF604504D1236922F440721A4305E0F6
:1013100040F20043C4F200039842F4D0A16922F0E5
:101320008002D4F804E0E368114360450160C362C1
:10133000C0F828E002D16169CCF830100121416188
:10134000002084F8461084F83E1084F83F1084F89A
:10135000401084F8411084F8421084F8431084F857
:10136000441084F8451084F83D1010BD704700000B
:1013700041B1082910D0042914BF00F1410200F145
:101380003F020BE090F83E20012A1CBF012070476D
:10139000022280F83E2013E000F140021278012A78
:1013A0001CBF012070470222082907D0042914BF5E
:1013B00080F8412080F83F2002E000BF80F8402004
:1013C000006801F01F010122036A8A4023EA02013A
:1013D0000162036A42F64441C4F201011A43A1F1D9
:1013E00044039842026203D0B0F1804F07D112E06B
:1013F0000A6842F400420A60B0F1804F0BD042F616
:101400000041C4F20101884205D040F20041C4F21B
:101410000001884206D1816801F00701062904BF56
:1014200000207047016841F0010101600020704711
:10143000FEE70000FEE70000FEE700007047000046
:1014400070470000FFF718B970470000FEE7000082
:1014500092B0FFF71FF900240120CDE90B44CDE93C
:1014600009440A9010200B904FF4E01002250F90D1
:1014700006A8CDE907440695CDE90D54FFF794FA87
:1014800020B1EFF3108072B6FEE700BF0F20CDE968
:1014900001054FF4C060CDE9040401A801210394C3
:1014A0000126FFF78DF928B1EFF3108072B600BF67
:1014B000FEE700BF41F21800C4F20200016841F2E9
:1014C000000441F0100101600168C4F2010401F060
:1014D0001001069106990168002241F004010160A3
:1014E00001684FF4005701F0040106910699016864
:1014F000002541F00801016000684FF4005100F040
:101500000800069006982046FEF7BEFF02200990CC
:1015100006A92046CDE906760895FEF7ABFE40F217
:10152000DC00A4F53C41C2F2000041F680224FF4F9
:101530008043C0F2060280E82600C0E90353C0E9F8
:101540000555C0E90755FEF7ABFF28B1EFF3108052
:1015500072B600BFFEE700BF40F27006C2F200069E
:101560004FF08041304640F8241F40F28331C822BA
:101570000495CDE90255CDE91055CDE90B55CDE9DE
:101580000955C0E90115C0E903258561FFF72CFC69
:1015900020B1EFF3108072B6FEE700BF4FF4805029
:1015A00006F12405019001A92846FFF795FC28B112
:1015B000EFF3108072B600BFFEE700BF2846FFF7CA
:1015C00075FE28B1EFF3108072B600BFFEE700BFD2
:1015D00010A92846FFF7D8FB20B1EFF3108072B6B0
:1015E000FEE700BF602006900020CDE907000A90CA
:1015F00006A928460022FFF75FFD28B1EFF310800F
:1016000072B600BFFEE700BF0520079006A9284676
:101610000422FFF751FD28B1EFF3108072B600BF2E
:10162000FEE700BF2846FFF721FD28460021FFF70F
:101630009FFE28460421FFF79BFE6425C82700BFB4
:10164000706A45638563C820FEF700FE20464FF4AC
:101650000051FEF711FF706A47638763C820FEF7E9
:10166000F5FDEDE7010200000000000000000102AE
:101670000304060708090000000001020304020336
:101680000405060708090A0B0C0D0E0F10100000C8
:10169000B01600080000002010000000280100081B
:1016A000C0160008100000202807000044010008B0
:1016B00001000000100000000024F4000000000001
:04000005080000ED02
:00000001FF
